:102000000080002011770000D5760000FB760000EC
:1020100000000000000000000000000000000000C0
:1020200000000000000000000000000095410000DA
:102030000000000000000000A142000065770000E1
:10204000FB760000FB760000FB760000FB760000CC
:1020500099760000FB76000041390000FD76000013
:10206000FB760000E5570000FB760000FB760000E1
:10207000BD570000FB760000F5570000FB7600001E
:10208000FB760000FB760000FB760000FB7600008C
:1020900000000000FB760000FB760000FB760000ED
:1020A000FB760000FB760000FB760000FB7600006C
:1020B0000000000010B5064C2378002B07D1054B1B
:1020C000002B02D0044800E000BF0123237010BDA4
:1020D00060010020000000009CBF0000044B10B510
:1020E000002B03D00349044800E000BF10BDC046E8
:1020F00000000000640100209CBF0000034B10B5ED
:10210000186803681B68984710BDC0468801002006
:10211000024B1860024B19707047C0464402002001
:102120008401002030B500202E24084B084A1B688B
:102130001578854207D925004543ED5C8D4204D0D2
:102140000130C0B2F4E70120404230BD440200201B
:1021500084010020002170B50A002E25174B184E6F
:102160001C6833788B4228D92B004B43E3181800A6
:102170002D300270581C1A715A719A71DA711A73E3
:102180005A739A73DA731A775A779A77DA771A72D8
:102190005A729A72DA721A755A759A75DA751A76CF
:1021A0005A769A76DA76C277981CC2770131D81CB3
:1021B0000433C277C9B2DA77D3E770BD4402002096
:1021C000840100200B0033221B0109091943C9B205
:1021D0008B108900914313400B43DBB2223258101D
:1021E0005B00104093431843C0B27047030041188E
:1021F000100070B5094D99420FD008241A781202C8
:10220000504006B2420090B2002E01DA6A4090B20D
:10221000013C002CF5D10133EDE770BD2110000029
:1022200010B572B601300021C07F05F0B9FC10BDB9
:1022300010B501300121C07F05F0B2FC62B610BDBF
:1022400070B505000C00FFF7EBFF7F212140074C24
:10225000200001F010FA0021200001F00CFA040027
:102260002800FFF7E5FF200070BDC046D002002027
:1022700070B5160005000C00FFF7D2FF8021214346
:10228000054C200001F0F7F93100200001F0F3F9CE
:102290002800FFF7CDFF70BDD002002070B504000C
:1022A00000290AD001222321FFF7E2FF0225232182
:1022B0002000FFF7C5FF2842F9D024212000FFF7B6
:1022C000BFFF4042401070BD70B5451D04000F2295
:1022D000E977002900D10B3213212000FFF7C8FF56
:1022E000EB7F002B0CD011212000FFF7A9FF1F224C
:1022F00010404132024311212000FFF7B9FF70BDA9
:10230000231DDA7F80231A43F5E770B55D220400B0
:102310000D1E00D1083A5A212000FFF7A9FF7C22A8
:10232000002D00D10C3A5C212000FFF7A1FF70BD09
:1023300070B5384E040033780D008B4232D03378BC
:10234000042B15D805F01CFA626833789B00E3185B
:1023500099688A1A12189A6005F012FA6060042DC2
:1023600020D82800012105F07BFD4740331E0800DE
:1023700029492A4803F008FBF1E72000FFF760FF36
:102380001C230C229843024301212000D2B2FFF704
:102390006FFF631DDB7F0121002B15D13378002BEC
:1023A00030D0357070BD2000FFF74AFF1C2310228B
:1023B0009843024301212000D2B2FFF759FF631D69
:1023C000DB7F002BEAD000212000FFF79EFFE5E72E
:1023D0002000FFF735FF1C23082298430243D2B2A6
:1023E00001212000FFF744FFD8E72000FFF728FF76
:1023F0001C2304229843F1E72000FFF721FFE3228A
:102400000240EDE727212000FFF71AFF0306C5D59C
:10241000C7E7C04600000020DCB2000014470020DF
:1024200000220F4B70B5282104001A700425FFF715
:1024300007FF284209D03D212000FFF701FF054397
:102440003D212000EAB2FFF713FF402220002521A2
:10245000FFF70EFF03212000FFF76AFF70BDC046A3
:1024600095010020F8B51C4D1C4E297032781C498E
:102470002B788A5C04009A4201D800232B70032138
:1024800032782B78174F4B439200D25920009A5C38
:102490000431FFF7EDFE032133782A789B004A438D
:1024A000DB5920009B185A780531FFF7E1FE032124
:1024B00032782B7892004B43D2592000D3189A7867
:1024C0000631FFF7D5FE084B1B78002B02D1200008
:1024D000FFF7A6FFF8BDC0463E020020A80100207D
:1024E00062B3000040B500003D020020F0B50400DA
:1024F0008FB001AF3422651C0E003800304907F060
:1025000051FEE87F012105F04BFBE87F012105F03A
:1025100017FB2C4801F066F92F2529002000AA227C
:10252000FFF7A6FE29002000FFF78AFEAA28F4D1B3
:102530002F25290020005522FFF79AFE29002000B0
:10254000FFF77EFE5528F4D100256B00F95CFF29CA
:1025500007D0FB1820005A780135FFF789FEEDB24D
:10256000F3E7631D2000D97FFFF7AEFE01212000B5
:10257000FFF7DEFE27212000FFF762FE0306F9D5F4
:10258000E31CD87F0422104904F0C4FF0F4B104A0B
:102590001C6000231370E3610E4B20001E700E4B75
:1025A0001978C9B2FFF75EFF0C4800F08DFF2000DC
:1025B000FFF7D0FD05F0E4F8094B18600FB0F0BD4F
:1025C0002EB30000D0020020FD2000008801002072
:1025D0003C020020A80100207D010020A90100206C
:1025E0008C010020F0B5D44B87B01B780190032BF1
:1025F00000D002E12E2405F0C3F8D04DD04F2B7847
:102600002A78396862438A18567F117F36020E4352
:10261000917F634309040E43D17F3A680906D318BA
:102620003143C84E5A1D01317143D67F9A1DD27F66
:1026300012021643DA1DD27F0833DB7F12043243C5
:102640001B061343C01A814200D325E105F098F818
:10265000BD4E01000A22300003F0EBF9BB49300007
:1026600003F076F92B783A6863433000995C0A22CC
:1026700003F0EBF9B649300003F06AF92B783A68B9
:102680006343D3182D3319780A22300003F0E1F99F
:10269000B04A1368013313603B6800932B78009AAB
:1026A0006343D318597E1A7E090211439A7E12049D
:1026B0001143DA7E12060A430132110A1A7659765C
:1026C000110C120E9976DA762B78009A6343D318A0
:1026D000597F1A7F090211439A7F12041143DA7F4E
:1026E00012060A430132110A5977110C9977297899
:1026F0001A77120EDA7761432B78009A63435118E8
:10270000487BD3180A7B000210438A7B12041043D3
:10271000CA7B197912060243587900020843997955
:1027200009040843D979090601435218110A1A719C
:102730005971110C120E9971DA712B782978634353
:10274000614302910099844ACB182D33187812788E
:10275000824B0130995CC0B205F01CFC009A029BD0
:10276000944663442D3319702B786343D3185A7FF2
:10277000197F120211439A7FDB7F12040A431B0662
:102780001343322B2FD904F0FBFF0A220100300043
:1027900003F04FF97249300003F0DAF82B783A6809
:1027A00063433000995C0A2203F04FF96D49300011
:1027B00003F0EAF800212B783A686343D3181977BD
:1027C00059779977D9772B785C431419664A217326
:1027D0001368617301331360644AA1731378E17362
:1027E000013BDBB21370FF22544B01211A7000220F
:1027F000514B01981A70FFF79BFD00255C4B1B782D
:10280000AB424ED92E264E4F6E433B689B195A7BE6
:10281000187B12020243987B00040243D87B000617
:1028200010433BD05A791979120211439A79DB7916
:1028300012040A431B0613431B18009304F0A0FF65
:102840003B689C19627F237F12021A43A37F1B04FB
:102850001A43E37F1B061343464A01335343009A4E
:10286000101A83421AD904F08BFF631DD877020A2D
:10287000A31DDA77020CE31DDA773B68000E9E1980
:102880000834E0772D3631780198FFF7EBFD03220D
:10289000294B1A70294B1D7007B0F0BD0135EDB200
:1028A000ACE7012500230293314B029A1B78934237
:1028B00000D89FE02E235343214E0093009A3368A3
:1028C0009C18637B227B1B021A43A37B1B041343CC
:1028D000E27B12061A43039229D10122164BE71C10
:1028E0001A70A3180493DD7FA31C0593DB7F0434C7
:1028F0001B022B43FD7F2D042B43E57F2D061D433B
:102900003AD104F03DFF049B059AD877030AD377A8
:10291000030CFB77009A3368000E9B181A002C32C8
:10292000E0772D33157019780198FFF79BFD029B16
:102930000133DBB2B7E7C0463C0200207C01002037
:1029400044020020983A000014470020F1B2000031
:102950000FB3000080010020A801002062B3000036
:1029600019B3000024B3000090010020940100205E
:10297000840100201027000004F002FF3368009A51
:102980009C18631C0493A21CDB7F0592D27FE71C7A
:1029900012021A43FB7F251D1B041A43EB7F1B0603
:1029A0001343C01A1B4B984200D875E71A4B2D34BD
:1029B00020781B78194A0130D15CC0B205F0EAFAE0
:1029C000217004F0DDFE049B059AD877030AD377C3
:1029D000030CFB77009A336803999B181A00000ECA
:1029E0002C32E8772D33117019780198FFF73AFDF2
:1029F000039D9CE7002D00D14EE70222084B1A7080
:102A0000084B1B78002B00D146E700210198FFF707
:102A10008FFC41E780D1F008A801002062B30000DC
:102A20003C02002000000020F0B587B0049004F0C4
:102A3000A7FE7B4C0390A079E179C0B2C9B204F043
:102A400059FE0022050006212000FFF7CFFB0027DA
:102A50000200854206D0200002210830FFF7C6FBA5
:102A600002000137FA23DB01013BFDD16D4EAA4282
:102A700015D1002A13D00723247804981C40210084
:102A8000FFF750FB00280ADB674B1D682E234343EA
:102A90000593EB18DA78002F07D0002A07D1317898
:102AA0000498C9B2FFF7DEFCB8E0002AF7D15F4A0C
:102AB0005F491078097888421FD2587B1E7B997B2A
:102AC0000002090406430E43D97B0906314314D1A1
:102AD000584929344C43210A5973210C99731178B0
:102AE0001C730131C9B21170534A240E1168DC7392
:102AF000002902D011680139116050490A68013279
:102B00000A609A78002A42D02E27597D1A7D090240
:102B100011439A7D4A4E12041143DA7D12060A438C
:102B20000132110A1A755975110C120E9975DA7560
:102B30003C4B44491A78444BD2B21B6809885B422B
:102B400009B28C463178DBB2794369184C7A087A3D
:102B500024020443887A00042043CC7A24062043CC
:102B60000ED031784F43ED196C7A297AA87A240275
:102B7000000421430143E87A000608430399081A38
:102B80006146019000913148254900F04FFC264BE9
:102B900000251C68059B039EE418A21DD27F631DBF
:102BA000DB7F12021A43E31DDB7F1B041A43230061
:102BB0000833DB7F1B061343039AD31A2200190A3A
:102BC00028325170FF211370180C1B0ED370039B19
:102BD00090701A0A1B0C0A400B400E400399A37216
:102BE000A371104B080EE072E0711878184B6272F6
:102BF0001B786271174A013025776577A577E577ED
:102C000026722671C0B2D15C05F0C4F92D34124B86
:102C10002170049801211D70FFF78AFB07B0F0BDF9
:102C2000980100203E020020440200209401002070
:102C30008401002024F400009001002040020020C4
:102C40007C01002096010020A4010020A9010020A1
:102C5000A801002062B300003C02002070B50021F2
:102C60000400FFF71BFB204B1860204B1B78032B45
:102C700038D128212000FFF7E3FA430732D521217C
:102C80002000FFF7DDFA222105002000FFF7D8FA27
:102C90000100280004F02EFD154B00B21880012120
:102CA0002000FFF745FB2000FFF7BAFA114E002184
:102CB000300000F0E0FC00250021300000F0DBFCDB
:102CC00001002000FFF77EFA0B4B585501350A2D05
:102CD000F2D10122094B20001A70FFF7A5FE200057
:102CE000FFF7A6FA70BDC046A40100200000002036
:102CF00096010020D00200209801002095010020BC
:102D000010B50400012902D002290AD010BD4C22BE
:102D10001921FFF7ADFA4B221A212000FFF7A8FA7C
:102D2000F4E74B221921FFF7A3FA4A22F4E7000047
:102D300037B596211F4CC901200003F009FAFA208B
:102D4000800004F04DFD01210D2004F0F9FE00216A
:102D50000D2004F025FF01211748FFF7D9F9174D81
:102D600000212800FFF7C2FB02212800FFF7C8FF5F
:102D7000012001F0AFFC124B1860012001F0AAFC09
:102D8000104B1860012001F0A5FC0F4B8022186049
:102D90000E4B5200019305230D4900930D4800236B
:102DA00001F064FE0C49200002F0EEFD01F030FF5E
:102DB00037BDC04614470020010000205C020020FF
:102DC0004C02002048020020500200208402002013
:102DD0005CB500007933000067B50000704770B53E
:102DE00004000D00012104F0ABFE0121200004F0DD
:102DF000D7FE280002F04EF80021200004F0D0FE9B
:102E000070BD000070B50E001500094C01002000D7
:102E100002F09EFD2000074902F096FD31002000DF
:102E200002F096FD2900200002F08EFD70BDC04624
:102E30001447002094B5000070B50E001500094C31
:102E40000100200002F084FD2000074902F07CFD13
:102E500031000A22200002F0E8FD2900200002F0E3
:102E600073FD70BD1447002094B5000073B50D4C80
:102E70000E1C01002000150002F06AFD20000A4926
:102E800002F062FD301C07F02FF80B000121020058
:102E90000091200002F0A6FE2900200002F054FD5F
:102EA00073BDC0461447002094B5000070B50E00F5
:102EB0001500094C0100200002F04AFD20000749DE
:102EC00002F042FD31000A22200002F08FFD2900AD
:102ED000200002F039FD70BD1447002094B50000B9
:102EE00070B50E001500094C0100200002F030FD05
:102EF0002000074902F028FD31000A22200002F0DC
:102F000098FD2900200002F01FFD70BD144700202D
:102F100094B50000F7B50D0000240190AC4219D023
:102F20000F22019B0C4E1F193B78934303D1302194
:102F3000300002F011FD397810223000C9B202F0E1
:102F400084FD6B1EA34203DD2D21300002F004FD41
:102F50000134E3E7F7BDC04614470020F0B5040094
:102F6000D64F87B0D649380002F0EEFC0A21200087
:102F7000FFF7D0FFD34D3800290002F0E5FC07230E
:102F800021782A001940D048FFF756FFCF49380072
:102F900002F0DAFCCE4E0A223168380002F049FD18
:102FA0002F21380002F0D8FCCA4B0A2219683800D9
:102FB00002F03FFD2F21380002F0CEFC306833686C
:102FC0000293C44B1E6806F069FF0022C24B06F054
:102FD000E3F8029B04900591981906F05FFF020048
:102FE0000B000498059905F0D1FC06F0C5FF06F02A
:102FF0007BFF0B00022102000091380002F0F2FD7D
:103000002900380002F0A0FC2A00A17AB348FFF79B
:1030100013FFE17A2A004942B148FFF70DFF2378F8
:10302000B0491B0700D4B0492A00B048FFF7EAFEB8
:10303000AF4BB048197807231940FFF773F8002603
:103040000200A078B04218D02E235A43AA4B9B18F6
:103050005B78102B35D1237940009B07DB0F184399
:10306000B4235B005843401206F0E8FE0022A34B55
:1030700005F022F906F0ACFE06002A006178A048AF
:10308000FFF7DAFE2A00A1789E48FFF7D5FE9E489A
:103090002A003100FFF7D0FE2078001102380D28F9
:1030A0005ED804F0E7FEE9005D0030009D004700B7
:1030B000FA00B100D500C7005D005D005D0096001C
:1030C000E400013806F0BAFE0022904B06F064F8E6
:1030D00000228F4B05F05AFC00220023029003913E
:1030E00005F07CF80022854B002807D00298039950
:1030F00005F0E2F806F06CFE0930BDE7029803998E
:1031000006F0B6FAF6E72179E07804F0F3FA814B9D
:10311000814E801198421DD006F090FE00227F4B18
:1031200005F034FC06F028FF2A00011C3000FFF7F0
:103130009DFE15E02179E07804F0DCFA784B794EB9
:103140008011984206DC06F079FE774A774B06F04C
:1031500023F8E7E701212A0030004942FFF76CFE1F
:10316000607B237B000218430004001406F066FE17
:1031700000226F4B06F010F800226E4B05F006FCA3
:10318000002200230290039105F028F800225B4BF7
:10319000002800D1EAE00298039905F08DF806F0C6
:1031A00017FE2A0001006448FFF780FEE37BA17B45
:1031B0001B020B43217C614A09040B43617C60487C
:1031C00009061943FFF78CFE380002F0CBFB07B06D
:1031D000F0BDE1782A005B488029BFD18139BDE785
:1031E000C0222379920019011140E2785648114318
:1031F000484A914203D101212A004942AEE75B06C9
:1032000000D409112A00A9E70F22E37820791B02D4
:1032100003431BB2D8171040C018001106F00EFE71
:1032200000224A4B05F0B2FB06F0A6FE2A00011C64
:1032300047487CE72079E378001100020A2118430F
:1032400004F0ACFE04F0F2FF2A00011C41486EE7D6
:103250002A00E1784048FFF7EFFDE378002B00D12A
:103260007EE70F2361792A003C48194076E7012167
:103270002A003B48494271E7E078237980009B09A6
:10328000184306F0DBFD0022134B05F07FFB06F030
:1032900073FE2A00011C334849E7E0782379800057
:1032A0009B09184306F0CAFD00220B4B05F06EFB8C
:1032B00006F062FE2A00011C2B4838E71447002064
:1032C0007DB5000082B5000085B500008DB5000019
:1032D00040020020800100200000594096B5000007
:1032E0009EB5000076B500007AB50000A3B50000D9
:1032F000980100205C020020010000200000E03F57
:10330000A8B50000AEB50000B7B50000006075407C
:1033100000E06F40FF030000BDB500000000494021
:10332000FD030000F6B500007C60C77F8120FC3FF4
:1033300080844E4000408F40FCB5000066BD000018
:1033400000B60000C0B50000C5B500000000244074
:10335000CEB50000D3B50000D6B50000DFB5000043
:10336000E7B50000F0B50000F5B50000029803993C
:1033700006F07EF913E7C04610B5154C200000F0AA
:10338000ACF8002804D0200000F089F8FFF7E6FD33
:10339000104B01211B78032B15D00021012B12D1DA
:1033A0000F210D20FFF71BFD0F210D20FFF717FD4B
:1033B0000D200F21FFF713FD642001F06BFD06487F
:1033C000FFF710F9D9E70D2004F0EAFBF7E7C04654
:1033D000A90100203C0200205C02002013B500245B
:1033E0000D48230022002100009402F07FFA0B4BCD
:1033F0000B4A03211A60C22292001A84DA1CD17788
:1034000001221F2007490A7007490C70191D053356
:10341000C877DA7713BDC046540200205C02002052
:1034200058B500000000002095010020F7B5019379
:1034300008AB00255D5F0300009292331B78040007
:103440000027072B27D806001223903630780A224F
:103450005843201806F0A6FE12233178009A4B43F9
:10346000E3189A72019A0998DA72AAB2120A5A7388
:103470001A001D739873030AD3730131030C13747C
:10348000050ECBB25574082B07D033700127923448
:103490002378013323703800FEBD3770F6E7010052
:1034A00092310B780200181E0BD01220013B0B70DA
:1034B00001390B7858430133DBB21018082B01D0C7
:1034C0000B7070470023FBE7020000239232137059
:1034D0009030013A13700370704792300078431EA9
:1034E0009841C0B27047000007B5002103480B00A7
:1034F0000A00009102F0FAF907BDC04688020020D8
:1035000007B5002103480B000A00009102F0EEF914
:1035100007BDC0469002002007B5002104480B00FB
:103520000A00009102F0E2F9024802F0D7F907BD63
:1035300098020020A002002007B5002103480B00DC
:103540000A00009102F0D2F907BDC046A80200208F
:103550000020704707B5002103480B000A000091C6
:1035600002F0C4F907BDC046B002002007B5002133
:1035700003480B000A00009102F0B8F907BDC046ED
:10358000B802002007B5002103480B000A00009193
:1035900002F0ACF907BDC046C002002007B500210B
:1035A00003480B000A00009102F0A0F907BDC046D5
:1035B000C802002010B500F00FFB0022024B800073
:1035C000C35849331A7010BD24030020F0B504001D
:1035D00085B01E000AAB1B78103001930BAB1B7833
:1035E000170002930CAB1B780D00039300F076F9E3
:1035F0002000243000F072F9220000234832A36337
:10360000E363236463641370537063729D4205D156
:103610002721084B084A094806F054FD2000019B69
:1036200025606371029B2771E371039BA67123726E
:1036300005B0F0BD06B6000017B600006BB600007E
:1036400030B5040085B002AD00680291039202F02B
:1036500070FB6B79227AE17920680093002302F0F5
:10366000B3FC2979029A206802F088FB206802F0F6
:1036700056FB05B030BD10B5006802F063FB10BD0D
:1036800010B5006802F0F4FB03000020834203DB66
:103690000C304343014A985810BDC046D4B60000D0
:1036A00010B5006802F0E4FB002805DB0C2343435F
:1036B0000348C018406810BD01204042FBE7C046E7
:1036C000D4B6000010B5006802F0D2FB002805DB7C
:1036D0000C2343430348C018806810BD01204042BA
:1036E000FBE7C046D4B60000F0B506001036050072
:1036F00089B0300000F048F900286CD12F00243741
:10370000380000F041F9041E62D12800FFF7DAFF0B
:10371000C1B2300000F018FA0221300000F038FA8F
:1037200001222E49300000F00BFA300000F054FA6C
:103730002B4B8000C5502800FFF7B2FFC1B2380004
:1037400000F002FA0221380000F022FA380000F0FE
:1037500043FA234B8000C5502800FFF791FF012357
:10376000010022000293300023000494039401948A
:10377000009400F033FAA8632800FFF781FF0123CB
:103780000200210001933800230004940394029462
:10379000009400F023FAE863402006F0EFFC2A00D2
:1037A00048322864079200280BD001231370686404
:1037B0006B6C10221819E96B103406F0F3FC402CE6
:1037C000F6D1079B1B78002B05D1380000F076F965
:1037D000300000F073F909B0F0BDC046B535000007
:1037E0002403002070B5437A0400002B03D101228A
:1037F00043814272C360230048331B78002B02D1FF
:103800002000FFF771FF18263300082120790D4DA5
:103810004343EB18595604F0EFF933000821A0791F
:103820004343EB18595604F0E7F908216079464301
:10383000AD19695604F0E0F9034B200006CBFFF701
:10384000FFFE70BD08B900001C0300201FB5094A27
:10385000094B0A49136000239380029301330193BB
:1038600016330093162201330548FFF7AFFE05B06B
:1038700000BDC0461C03002000093D000C4700208D
:10388000D0020020084B1968002909D1EFF31080FD
:10389000064A002803D172B6BFF35F8F0131117061
:1038A0001A6801321A607047E8040020E40400201E
:1038B000084B1A68002A0CD01A68013A1A601B6873
:1038C000002B06D1044B1B78002B02D0BFF35F8F77
:1038D00062B67047E8040020E4040020FF2310B51E
:1038E0000370C023002104009B004170418083804D
:1038F0000C22083006F05FFC200010BD01230A00F6
:1039000010B51A40194208D00C4A137003334370A3
:103910008368002B00D0984710BD0223194204D0C1
:1039200006490B70C3684270F3E704231942F3D0D1
:10393000024A1370033343700369EAE74E480041BB
:1039400010B5FFF79FFF0C4B1B8C1B071B0F0B2B9E
:103950000FD80A4A9900885800280AD00F2408492D
:103960000A78A24313430B70064B1978C9B2FFF7CC
:10397000C5FFFFF79DFF10BD00480041EC0400208B
:103980003F4800414E480041F8B500230278050049
:1039900018000B2A77D93C4E2B702B780B2B07D8AD
:1039A00001229A403168114204D001332B70F4E7B0
:1039B000012068E0FFF766FF3768344C002F2BD1F9
:1039C0002022334B334859690A435A611022D9697E
:1039D0000A43DA6102222388390093432380238833
:1039E000013A134323802C4B6063BF32A36306F07C
:1039F000E2FBC0223900284806F0DDFB4022C1204E
:103A0000264B80002380264B26491A601A58114005
:103A1000C02212040A431A5001231A002978306880
:103A20008A40024332600F261F4A880085501F4893
:103A300031400278B2430A43027002201C4A1178D6
:103A400081431170117819431170297822698B40D4
:103A50009A43226160223F21636C934363642A7915
:103A6000636C0A40134912020B4003211343636441
:103A70006A79636C0A40104992050B4013436364F2
:103A8000FFF716FF0020F8BDE004002000480041C9
:103A9000000400402004002060030020020F00000A
:103AA00000E100E0FFFF00FFEC0400203F48004180
:103AB00040480041FFC0FFFFFFFF3FFF70B505001A
:103AC000FFF7E0FE6B785CB2062B2BD02B7802243C
:103AD0000B2B27D801229A40144B1968114221D090
:103AE0001968914319601B68002B14D14022104BB8
:103AF000DA67BFF34F8FBFF36F8F21000D4A0E318E
:103B00001388A34313800C4BDA698A43DA615A693C
:103B100010318A435A6100242B78084A9B009C503C
:103B2000FF232B70FFF7C4FE200070BDE0040020CF
:103B300004E100E00048004100040040EC040020E3
:103B40000232920011507047037870B505000C00E6
:103B500001710B2B14D8FFF795FE29780F25094822
:103B600029400378084AAB430B4303703F23516C51
:103B70001C40064B240219400C435464FFF798FE86
:103B800070BDC0463F48004100480041FFC0FFFFF4
:103B9000037870B505000C0041710B2B14D8FFF7AA
:103BA00071FE29780F25094829400378084AAB435C
:103BB0000B4303700323516C1C40064BA4051940B2
:103BC0000C435464FFF774FE70BDC0463F4800418B
:103BD00000480041FFFF3FFF00787047F0B587B015
:103BE00001930CAB1E780DAB1B78050002930EAB56
:103BF0001B780078039310AB1F78049105920B2873
:103C000002D9002007B0F0BD6B78062BF9D0AB7855
:103C1000002B00D179E01021080006F0A5FA002859
:103C2000EFD02B783B4A1B019B181A00D168002962
:103C300004D0D1688B4201D0D268F7E7D06001226E
:103C40000223AA70964203D0DB18022E00D0130084
:103C500006240188114301800188A1430180018865
:103C60001234A1430180153C018826402A4C3602BB
:103C700021400E430680029E0188284C16402140B8
:103C8000B6020E430680039E0188254C1640214053
:103C9000F6020E4306800188224E3A40314012035C
:103CA0000A43072102800F9A114002884903D20477
:103CB000D20C0A4302806A4692884280049A42608B
:103CC000029A002A08D0019A41685A43002F01D075
:103CD0000F9CA2408A184260059A8260039A002ACB
:103CE00009D0019A84685A431300002F01D10F9A1A
:103CF0009340E31883600023EA789A4203D02B783C
:103D0000044A1B019B18C3607CE7024B0001C018EA
:103D100095E7C04620040020FFFCFFFFFFFBFFFFEC
:103D2000FFF7FFFFFFEFFFFF03001A78002A0AD01A
:103D3000591C2F2A01D05C2A03D15B78002B00D0BC
:103D400008000B00F1E77047FA235B01584300239A
:103D5000834202D0C0460133FAE77047F8B5104DF0
:103D600006000121286803F0EBFE0024B44212DAB9
:103D70000C4F2868396803F013FF6420FFF7E4FF55
:103D8000396828684B42594103F00AFF6420FFF765
:103D9000DBFF0134EAE7FA208000FFF7D5FFF8BD2A
:103DA000340000203000002010B572B60320FFF769
:103DB000D5FFFBE770B5154C050020680E00002804
:103DC00022D00368DB6898471149206801F0D2FDD2
:103DD0001049206801F0CEFD0F49206801F0B4FDC4
:103DE0003100206801F0D0FD0C49206801F0ACFDE5
:103DF0000A222900206801F036FE20680368DB688B
:103E00009847642003F0ECFCFFF7CEFF1C05002070
:103E100066BD00001CB700002DB7000034B70000DD
:103E200010B50B4C206800280DD00A4901F0A2FD06
:103E30000949206801F09EFD20680368DB68984707
:103E4000642003F0CDFC0120FFF788FFFBE7C046AC
:103E50001C05002066BD00003BB7000070B50D4C8E
:103E60000D002068002811D00B4901F083FD0B499B
:103E7000206801F069FD2900206801F085FD2068B7
:103E80000368DB689847642003F0AAFC0220FFF770
:103E900065FFFBE71C05002066BD000049B7000078
:103EA00010B50F4B1A001B688342FBD354681119DD
:103EB000884203D1416810000919516041684418D3
:103EC000A34207D1074C2468A34203D05C681B6857
:103ED000611841600360904200D0106010BDC04680
:103EE000303D002020050020F7B5040000F0C8FE9A
:103EF0003F49404E0B68002B1BD107203E4B1A0058
:103F0000034201D01A18824300203C4D68602A60A9
:103F10003B4D5B190725AB43186058600B60981A3E
:103F20001360384B50601860374B186080231B06B5
:103F300033603368234207D000F03AFFFFF770FF89
:103F4000002300930098FEBD002CF5D00723083411
:103F50001C4201D09C430834002CEDD02A4F3B6812
:103F6000A342E9D3254B1D686A68A24202D22868A1
:103F7000002839D10968A942DED01968121B08311E
:103F8000009129681960102A12D92B1901935B0737
:103F900006D01E48FFF7C8FE0100C220FFF70AFF47
:103FA0006B682A191B1B536001986C60FFF778FF40
:103FB00014493B686A6808689B1A3B60834200D2D8
:103FC0000B60336813436B6000232B6000F0F0FE3E
:103FD000009B5B07B6D00D48FFF7A6FE01008120CD
:103FE0004000FFF7E7FEADE72B000500BCE7C04649
:103FF00020050020243D002024050020303D002025
:10400000F83700002C3D0020283D00205AB7000062
:1040100070B500282ED0184D08382B68426804006F
:10402000134207D11548FFF77FFE01008B204000A7
:10403000FFF7C0FE2368002B07D01048FFF774FE7F
:1040400001001820FF30FFF7B5FE63682A681A42A6
:1040500010D0216800290DD19343636000F010FE59
:10406000074A6368116820005B181360FFF718FFA8
:1040700000F09EFE70BDC046243D00205AB70000EF
:10408000283D002010B5FEF7A9FE10BD0300012257
:1040900008334360C36003610023524282600360BF
:1040A000704700230361704743689A684B608A60D9
:1040B0009A68516099600368086101330360704732
:1040C000020030B50C680832631C0AD103695A68D3
:1040D0004A6091608B605960036808610133036036
:1040E00030BD130052681568A542FAD9EFE703699D
:1040F000416882688A6051605968814200D15A6083
:10410000002202611A68013A1A60186870470000BC
:104110000B4A13681868203080F30988022080F366
:104120001488BFF36F8F3FBCAE4608BC04BC62B6B8
:104130001847C046C046C046C046C046C046C046F6
:104140003C3D0020002307B50193084B1B68013359
:1041500006D00748FFF7E8FD01007D20FFF72AFEA3
:1041600072B6019B002BFCD007BDC046383D002035
:10417000A8B7000010B58024031F64041C60043B32
:1041800019600349043B1960143B40381A6010BDA4
:104190004541000070470000034B10B51B68002B21
:1041A00000D09847002010BD9C4D00200F4B104AB6
:1041B00010B51A60FF220F4B1204196800240A433D
:1041C0001A60FF22196812060A431A600A4B0B4A4A
:1041D0001C600B4914600B4A116007221A600A4BDD
:1041E0001C60FFF795FF200010BDC0469C4D0020CD
:1041F0007D42000020ED00E010E000E018E000E06B
:104200007FBB000014E000E0383D00208022044B1A
:1042100052051A60BFF34F8FBFF36F8F7047C046D0
:1042200004ED00E072B6044A136801331360BFF373
:104230004F8FBFF36F8F7047383D002010B5094C8A
:104240002368002B07D10848FFF76EFD01003620D8
:10425000FF30FFF7AFFD2368013B2360002B00D147
:1042600062B610BD383D0020A8B70000EFF3108003
:1042700072B6704780F310887047000010B5FFF7E2
:10428000F5FF040000F00AFD002803D08022034B54
:1042900052051A602000FFF7EDFF10BD04ED00E0AD
:1042A000EFF309800E4B1A6820381060F0C04446C6
:1042B0004D4656465F46F0C008B572B600F00CFE9B
:1042C00062B60CBC116808681030F0C8A046A94658
:1042D000B246BB4680F309882038F0C81847C0466C
:1042E0003C3D002010B50400FFF79CFFA46BFFF7D6
:1042F000A5FF6042604110BDF8B51500026C0400D6
:10430000866B002A0CD107681500002F04D1806845
:1043100000F02EFF0500A76001362800A663F8BD57
:10432000002D0CD1406805F03DFF6368226C9B189E
:10433000A26863609342EFD323686360ECE7C068D0
:1043400005F030FFE368226C51429A1A2368E2605C
:104350009A4202D2A3685918E160022D05D13300B8
:104360005A1E93410025F61AD6E70025D4E700002F
:10437000F7B5846C01900091002C06D11948FFF725
:10438000D3FC01001848FFF715FDA36BE26B9342C5
:1043900006D31448FFF7C8FC01001448FFF70AFDD4
:1043A000A36BE26B0026934215D227002000009AEF
:1043B000453701A93D78FFF79FFF6DB206006B1CE2
:1043C0000BD1636A002B06D02000243000F028FEB9
:1043D000002800D001263000FEBD01356DB23D70D1
:1043E000F9E7C046F1B70000450B0000460B00009E
:1043F00003001A6C080010B5002A0AD0D9688C187E
:104400009968DC608C4201D31968D960D96805F0DD
:10441000C9FE10BD70B5040026004536FFF702FF47
:1044200035786DB2002D10DCFF2333702600443642
:10443000FFF704FFFFF7F6FE35786DB2002D19DCAB
:10444000FF233370FFF7FAFE70BDA36C002B09D079
:1044500000212000FFF78CFF002801D000F072FE41
:10446000013DDEE7636A002BDED02000243000F03F
:10447000D7FDF1E72369002BE2D02000103000F0D7
:10448000CFFD002801D000F05DFE013DD5E7000022
:1044900070B504000D00002807D11A48FFF744FC4E
:1044A00001000420FF30FFF785FCFFF7BBFE216C05
:1044B000E36B22684B43D0185B1AD318E3602300E8
:1044C000A06062600020FF224433A0631A705A701B
:1044D00085420ED12369834207D02000103000F0BE
:1044E0009FFD002801D0FFF791FEFFF7A7FE0120F6
:1044F00070BD20001030FFF7C9FD20002430FFF709
:10450000C5FDF2E7F1B70000F8B506000D00170091
:10451000002807D11048FFF707FC0100BB2040002E
:10452000FFF748FC280070435430FFF7DDFC041E01
:104530000FD00300002D00D0543323600121200050
:10454000E6632564FFF7A4FF230050331F700023A8
:10455000A3642000F8BDC046F1B70000F0B585B0F7
:1045600004000F001D000192002806D15448FFF7F7
:10457000DBFB01005348FFF71DFC002F09D1236C22
:10458000002B06D04E48FFF7CFFB01004E48FFF747
:1045900011FC022D09D1E36B012B06D04848FFF72F
:1045A000C3FB01004948FFF705FC00F0D1FD0028DE
:1045B00009D1019B002B06D04148FFF7B5FB010054
:1045C0004348FFF7F7FB00230093FFF72BFEA36B95
:1045D000E26B934201D3022D21D12A003900200041
:1045E000A66BFFF789FEA36C002B10D0022D01D122
:1045F000002E07D129002000FFF7BAFE002801D0C5
:10460000FFF704FEFFF71AFE012005B0F0BD636A54
:10461000002BF3D02000243000F002FDEEE7019ED5
:10462000002E03D1FFF70AFE0020EEE7009B002BCF
:1046300002D102A800F038FDFFF700FE00F020FBD9
:10464000FFF7F0FD2200443213785BB2013301D151
:10465000002313702200453213785BB2013301D17D
:1046600000231370FFF7EAFD01A902A800F028FD5E
:1046700000281FD1FFF7D6FDA36BE26B934210D148
:10468000FFF7DCFD20000199103000F089FC2000CC
:10469000FFF7C0FE00F08CFB002809D1FFF7B6FD44
:1046A00006E0FFF7CBFD2000FFF7B4FE00F080FB33
:1046B000012389E72000FFF7ADFE00F079FBB3E7A7
:1046C000F1B70000F1020000F2020000F302000066
:1046D000F6020000020010B500210120FFF714FFD0
:1046E000041E07D000210B000A0081600160C16038
:1046F000FFF734FF200010BDF0B585B004001700AF
:104700001E000191002806D12C48FFF70DFB010087
:104710002B48FFF74FFB019B002B0AD1236C002B8A
:1047200007D02648FFF700FB0100F1208000FFF7CB
:1047300041FB022E09D1E36B012B06D01F48FFF786
:10474000F3FA01001F48FFF735FBFFF78FFDA36B5E
:10475000E26B0390934202D30025022E1AD123006C
:10476000453302931D7832006DB220000199FFF7A6
:10477000C3FD6B1C1CD1A36C002B11D03100200099
:10478000FFF7F6FD002801D1012503E0002FFBD043
:1047900001253D600398FFF76DFD280005B0F0BDD1
:1047A000636A002BF0D02000243000F039FCE9E7E8
:1047B000029B01356DB21D70E6E7C046F1B70000FF
:1047C000C3030000C5030000F0B585B004000E006F
:1047D0000192002807D14748FFF7A6FA0100A02060
:1047E000C000FFF7E7FA002E09D1236C002B06D09A
:1047F0004048FFF799FA01003F48FFF7DBFA00F065
:10480000A7FC002809D1019B002B06D03948FFF7EF
:104810008BFA01003948FFF7CDFA0027FFF702FDB8
:10482000A56B002D15D031002000013DFFF7E0FD04
:10483000A5632369002B07D02000103000F0F0FBA7
:10484000002801D0FFF7E2FCFFF7F8FC012005B0DB
:10485000F0BD019D002D03D1FFF7F0FC0020F6E72D
:10486000002F02D102A800F01FFCFFF7E7FC00F0C8
:1048700007FAFFF7D7FC2200443213785BB201330A
:1048800001D1002313702200453213785BB201334B
:1048900001D100231370FFF7D1FC01A902A800F099
:1048A0000FFC00281AD12000FFF71CFD00280FD0B4
:1048B00020000199243000F073FB2000FFF7AAFDCF
:1048C00000F076FA002801D1FFF7A0FC0127A5E748
:1048D0002000FFF79FFD00F06BFAF7E72000FFF7DD
:1048E00099FD00F065FA2000FFF7FCFC0028EDD0F0
:1048F000B4E7C046F1B70000040500000905000058
:10490000002370B5064ADD00AC182668002E02D1DF
:10491000A950606070BD0133082BF4D1FAE7C0469E
:10492000A04D002070B5040016000D00FFF77AFCC2
:104930002200443213785BB2013301D1002313709B
:104940002200453213785BB2013301D1002313708A
:10495000FFF774FCA36B002B05D120003200290067
:10496000243000F03BFB2000FFF754FD70BD704782
:1049700010B502F005FF10BD074A13681968074B10
:10498000002903D1012252421A6070471268D2688E
:10499000D2685268F8E7C046403D0020443E0020FF
:1049A000F8B50400144B154D1E6828680F0004303C
:1049B000FFF79DFB631C07D1002F05D02968104825
:1049C0000431FFF771FBF8BD2B6834195C60A64217
:1049D00006D90C4B186829680431FFF771FBF2E720
:1049E000094B186829680431FFF76AFB074B1A68FE
:1049F000A242E8D91C60E6E78C3E00203C3D002046
:104A0000643E0020443D0020403D0020443E002004
:104A100070B5124C2368002B08D1114B1B68012B79
:104A200001D9FFF7F3FBFFF72DFBF2E7FFF7FAFBE6
:104A30000C4BDB68DD68281DFFF759FB0A4A136839
:104A4000013B13602368013B2360FFF7F7FB286BF2
:104A5000FFF7DEFA2800FFF7DBFADAE7043E002072
:104A6000483D0020783E0020003E0020F0B5970031
:104A700085B0029038000C000393FFF735FA061E4C
:104A800018D06020FFF730FA051E10D03A000663F8
:104A9000A521300005F08FFB2B6B2A00009300232B
:104AA00034329C4209D12B0034331C7011E03000A9
:104AB000FFF7AEFA0126764281E0E15CD154E15C79
:104AC000002902D00133102BF7D12B0000224333F1
:104AD0001A700A9C082C00D9082400262B1D1800E7
:104AE000EC62EC642E650193FFF7DBFA28001830C6
:104AF000FFF7D7FA09231C1B2B005C332D61AC6137
:104B00006D626E65AE651E70009B381F1818072316
:104B1000039A98430299FFF72DFB0B9B2860B34241
:104B200000D01D60FFF77EFB2C4B2D4C1A68013224
:104B30001A602668002E45D125601B68012B1ED106
:104B4000142738007043274B01361818FFF79EFAD8
:104B5000092EF6D1244F3800FFF798FA234E300083
:104B6000FFF794FA2248FFF791FA2248FFF78EFAEE
:104B70002148FFF78BFA214B1F60214B1E60214A11
:104B8000136801331360204A6B641168EB6A8B422F
:104B900000D9136014205843124B01991818FFF7DD
:104BA00083FAFFF74BFB194B01261B68002B06D03D
:104BB0002368DA6AEB6A9A4201D2FFF727FB3000DA
:104BC00005B0F0BD114B1B68002BD8D12368EA6AF1
:104BD000DB6A9342D3D82560D1E7C046003E00206F
:104BE0003C3D0020483D0020183E00202C3E002087
:104BF0004C3E0020783E0020643E0020403D0020D6
:104C0000443D0020103E0020143E0020603E002065
:104C100013B50024134B9622019313492300134824
:104C20000094FFF723FF012811D100F033FB012886
:104C30000DD172B601220E4B52421A600D4B186014
:104C40000D4B1C60FFF793FEFFF7B0FA13BD431C3A
:104C5000FCD10A48FFF768F8010082200001FFF745
:104C6000A9F8F3E7403E002085B80000114A000093
:104C7000443E0020603E00208C3E00203BB80000F7
:104C8000024A1368013313607047C0460C3E00208F
:104C9000014B18687047C0468C3E0020374BF7B573
:104CA0001B68002B63D1364B1A68013200921A60E0
:104CB000002A16D1334C23681B68002B06D03248DB
:104CC000FFF732F801003148FFF774F8304B2268E3
:104CD000196821601A602F4A136801331360FFF7C7
:104CE0004BFE2D4E009A336800242C4F934235D949
:104CF0003B68DA6A14235343294AD358012B00D95D
:104D00000124284B1B68002B00D001242000FEBD8D
:104D10001B68009ADB68DD686B689A4225D32B1DFF
:104D200018000193FFF7E3F9AB6A002B03D02800CA
:104D30001830FFF7DCF91C4BE86A1A68904200D97A
:104D4000186014235843164B291D1818FFF7ACF9A7
:104D50003B68EA6ADB6A9A4200D30124094B1A686D
:104D60001268002AD4D101235B423360C0E70F4AA6
:104D70000024136801331360C3E7C0460C3E0020D3
:104D80008C3E0020403D00203BB800007F0A000020
:104D9000443D0020483E0020443E00203C3D002091
:104DA000483D0020903E0020143E0020083E002098
:104DB000F8B52E4C2368002B06D12D48FEF7B4FF22
:104DC00001002C48FEF7F6FFFFF72CFA2368013BA1
:104DD00023602468002C04D00024FFF72FFA200061
:104DE000F8BD254B1B68002BF6D0142601271DE0CB
:104DF000DB68DC682000251D1830FFF778F92800F3
:104E0000FFF775F91D4BE06A1A68904200D91860E7
:104E100070431B4B2900C018FFF746F9194BE26A93
:104E20001B68DB6A9A4201D3174B1F60174B1A6845
:104E3000002ADDD1002C01D0FFF79EFD144D2C6817
:104E4000002C0AD00126FFF729FF002801D00E4BC5
:104E50001E60013C002CF6D12C600B4B1B68002B14
:104E6000BAD0FFF7D3F90124B7E7C0460C3E0020C3
:104E70003BB8000085080000003E0020143E0020E2
:104E8000483D00203C3D0020903E00204C3E00204C
:104E9000083E002010B5041E02D1FFF7B7F910BD7F
:104EA0000A4B1B68002B06D00948FEF73DFF0100A6
:104EB0000848FEF77FFFFFF7E3FE00212000FFF721
:104EC0006FFDFFF775FF0028E7D0E8E70C3E0020F4
:104ED0003BB800003C050000F8B5284B1A68284B89
:104EE000002A02D001221A60F8BD1A60FFF740FDC7
:104EF000244A254D1368984204D929684C6DE31A59
:104F00001B184B652B6810601B6B20491A688A427E
:104F100008D15968914205D19A688A4202D1DB686A
:104F2000934204D0286829683431FEF797FF14278C
:104F3000174E34683B006343164A9958002911D034
:104F4000D1184868083340689B184860984201D1DE
:104F500043684B6014236343D2185368DB682B60AB
:104F60003460C1E7002C06D10B48FEF7DDFE0100DE
:104F70000A48FEF71FFF013CDCE7C0460C3E00205C
:104F8000903E0020FC3D00203C3D0020A5A5A5A5AD
:104F9000143E0020483D00203BB80000B70B000045
:104FA00070B504000D00002806D10948FEF7BCFECC
:104FB00001000848FEF7FEFE074B20001968183173
:104FC000FFF77EF828000121FFF7EAFC70BDC0461C
:104FD0003BB80000CE0B00003C3D002070B5060041
:104FE0000C001500002806D10A48FEF79DFE0100BE
:104FF0000948FEF7DFFE094B300019681831FFF74A
:1050000053F8002D01D00124644229002000FFF74D
:10501000C7FC70BD3BB80000F90B00003C3D002010
:10502000C36870B5DC68002C06D11748FEF77CFE1B
:1050300001001648FEF7BEFE250018352800FFF7D0
:1050400056F8134B1B68002B1BD1251D2800FFF7BA
:105050004EF8104AE36A11688B4200D9136014209D
:10506000290058430C4BC018FFF71EF80B4BE26A9F
:105070001B680020DB6A9A4202D9094B0130186094
:1050800070BD29000748EFE73BB80000290C00007D
:105090000C3E0020143E0020483D00203C3D0020F6
:1050A000903E00204C3E0020034B1B680360034BE6
:1050B0001B6843607047C046483E00208C3E00207D
:1050C00070B505000C00002806D11948FEF72CFE2B
:1050D00001001848FEF76EFE002C06D11448FEF7BA
:1050E00023FE01001448FEF765FEFFF79BF8134B03
:1050F0000026196823685A1C12D011482E680068CF
:105100006A68864202D001268A4209D9881A8342F7
:105110000AD95B1A9B1828002360FFF7C5FF0026F9
:10512000FFF78CF8300070BD002301262360F7E7FD
:105130003BB80000940C0000950C00008C3E002051
:10514000483E00200122014B1A607047903E00202B
:10515000054B01201B68002B04D0044B1868434208
:10516000584140007047C046603E00200C3E002081
:1051700070B5041E01D1002070BD1A4B1B6883421C
:1051800006D01948FEF7D0FD01001848FEF712FEC0
:10519000236D002B06D11448FEF7C6FD010014480C
:1051A000FEF708FE236DE26AE16C013B23658A424B
:1051B000E1D0002BDFD1251D2800FEF798FF092242
:1051C000E36CD21AA2610B4AE36211688B4200D9E8
:1051D000136014205843084B2900C018FEF764FFE1
:1051E0000120C9E73C3D00203BB80000E70F00006C
:1051F000E80F0000143E0020483D0020F8B5FFF7FE
:1052000011F80F4C2568002D16D10E4F3800FEF70F
:105210003DFF0D4E3000FEF739FF0C4B2A001F609A
:105220000B4B0C210A201E60FFF76EF9206000284E
:1052300002D00849FFF764FBFFF700F8F8BDC0464D
:10524000C83E00209C3E0020B03E0020943E00203E
:10525000983E00208AB8000010B50400416000614B
:1052600091420BD8D21AA36901209A4205D2074B6A
:10527000211D1868FEF724FF002010BD9A4202D2BB
:1052800001209942F9D2024B211DF2E7983E0020FD
:10529000943E002007B5FFF7B1FF0D4B1B68002BB4
:1052A00009D10C48FEF740FD01001420FF30FEF745
:1052B00081FD00200EBD084B962201930223074971
:1052C000009307480023FFF7D1FB0028E9D0F1E75E
:1052D000C83E00208FB80000CC3E0020DAB80000A5
:1052E000C5530000F0B587B005000C001E00019208
:1052F000002807D11248FEF717FD0100C120400029
:10530000FEF758FD0F4F3B68181E10D0019B039409
:1053100004930595052C0CDCFFF71AFF00230C9A6B
:10532000022800D01A00386803A9FFF717F907B060
:10533000F0BD0023320003A9FFF7DEF9F7E7C0460E
:105340008FB80000C83E0020F7B51B4D2B681A68C7
:10535000002A04D1194A116813602960F7BDDB687F
:10536000DC681E68271D3800FEF7C1FE236A200096
:1053700098472300042228331B781342E5D0A36901
:10538000F3189E4206D23900286863602461FEF754
:1053900097FEDAE7002132000B0020000091FFF7B2
:1053A000A1FF0028D1D10648FEF7BEFC0100E12094
:1053B0008000FEF7FFFCC8E7943E0020983E0020E6
:1053C0008FB80000F0B589B0664E012533681C68BF
:1053D000002C02D00025DB681C68FFF751FCFFF7AA
:1053E00057FC614F03903A68904215D33860002D06
:1053F00040D05E4B1B681D686B425D41039B2A00D9
:10540000E11A5B4B1868FFF78DFAFFF7D1FC002813
:1054100008D1FEF7FBFE05E0FFF796FF039B3B601C
:10542000FFF7C6FC524B0022186805A9FFF7CCF91C
:105430000028C9D0059B002BF4DB079C6369002B77
:1054400002D0201DFEF753FEFFF722FC3B6806004A
:10545000984201D2FFF778FF05983E600928E1D80D
:10546000250028352B7802F0FBFC373737795D7340
:105470003737795D039B9C42C0D8FFF799FC3368AE
:10548000DB68DE68301DFEF732FE3200283213780A
:1054900059071DD5B3693000E118039A2300FFF7BF
:1054A000DBFE002810D02B002200290030000095E0
:1054B000FFF718FF002807D12E48FEF735FC010042
:1054C000FC204000FEF776FC3000336A9847A9E7DD
:1054D00001218B431370F7E7012213432B70A2695C
:1054E000069B2000991832000393FFF7B5FE0028B1
:1054F00098D0236A200098472B785B0792D5A36940
:10550000069A2000D218002319000093FFF7EAFE44
:10551000002887D11748FEF707FC01001648FEF760
:1055200049FC7FE7012213432B70069BA361002BEC
:1055300006D11048FEF7F8FB01001048FEF73AFCD0
:10554000A3693200F11820003300FFF785FE69E7F8
:105550009A0703D42000FEF75BFD63E70122934323
:105560002B705FE7943E0020C43E0020983E002050
:10557000C83E00208FB80000130300002B0300007A
:10558000F8B505000E0017000024BC4208D02B68B7
:105590002800315D1B689847002801D00134F4E7EA
:1055A0002000F8BD70470300FC33196ADA699142A4
:1055B00003D01B6AC018007E704701204042FBE701
:1055C0000300FC33D8691B6AC01A01D50130FF30D3
:1055D00070470000F7B50193FA23802700250400E7
:1055E0009B008360114B7F0008330E00456029004B
:1055F000009203603A00183004F0DDFD2300200023
:10560000FC332130DD613A001D622900FF3004F0D7
:10561000D2FD87239B00E3185D609D60009B200006
:105620002375019B2661A5756375FEBDE4B8000076
:105630000200FC32536810B501339468DBB29C421F
:1056400002D054680155536010BD10B50300827D2F
:10565000002082420ED0872292009C186268A468C3
:105660000132D2B2A24205D02133FF331800FFF736
:10567000DFFF012010BD0300FC3399685A68914296
:1056800006D09A68805C9A680132D2B29A607047FC
:1056900001204042FBE710B51830FFF7ECFF10BDCA
:1056A00070B50400006900F0B4FB002814D0206934
:1056B00000F0BDFB002810D0206900F07BFB032127
:1056C000206900F081FB8C239B00E558002D39D127
:1056D0000023FC34E361236270BD206900F0B1FB5C
:1056E000002809D0206900F0A7FB002804D0206919
:1056F00000F0ACFB0028DFD0206900F0A2FB0028FE
:1057000026D1206900F08EFB0028E5D0206900F04A
:105710009DFB002837D087239B00E21853689268CE
:105720009B1A01D50133FF33FF21002B05D0200048
:105730002130FF30FFF79FFFC1B2206900F05AFB14
:10574000A075C9E7236820001B699847A847BFE7F1
:10575000206900F02FFB2069032100F035FB206950
:1057600000F074FB0028B7D0872300229B00E318C9
:105770005A609A600123A3758B239B00E3589342E0
:10578000AAD09847A8E72200FC32D369126A0133F5
:10579000DBB22069934206D100F003FB03212069AC
:1057A00000F012FB98E700F056FB010020001830D3
:1057B000FFF73EFF206900F0FDFAEFE710B5024861
:1057C000FFF76EFF10BDC046D03E002010B5152378
:1057D000142202490248FFF7FDFE10BD08470020D1
:1057E000D03E002010B5024801F09AFD10BDC04621
:1057F0000441002010B5024801F092FD10BDC046E2
:1058000000440020F7B501240326154F1549380040
:1058100000F0EFF91449154800F0EBF91449154868
:1058200000F0E7F91449154800F0E3F91449154868
:1058300000F0DFF9144D1549280000F0DAF93900BD
:105840002300009600220194114801F0FFFC29007A
:1058500000961E231F2201940E4801F0F7FCF7BDAD
:10586000FC46002000080042000C004200470020D7
:1058700000100042044700200014004208470020A6
:10588000001800420C47002010470020001C004276
:105890000441002000440020F7B5C31D01930023FC
:1058A00005000C00071D009339780A22200000F043
:1058B000CCF82E210600200000F04EF8009B361890
:1058C0009B190093019B01379F42EDD1E9790A2290
:1058D000200000F0BAF8009B1818FEBD024B0833F8
:1058E000036000234360704758BD000030B503AC2F
:1058F0002578044CC57108340460017142718371CC
:1059000030BDC04658BD0000F8B505000E001700B8
:105910000024BC4208D02B682800315D1B689847E2
:10592000002801D00134F4E72000F8BD70B505006F
:105930000C00081E07D005F02BF82B680200210090
:1059400028005B68984770BD10B5FFF7EFFF10BDEA
:1059500010B5FFF7EBFF10BD10B503681B68984743
:1059600010BD000010B50249FFF7E0FF10BDC046B2
:1059700064BD000070B50400FFF7D8FF05002000EB
:10598000FFF7F0FF401970BD70B50400FFF7CEFFC0
:1059900005002000FFF7E6FF401970BDF0B58BB0A1
:1059A0006B4614000022053307000D00DA77012C46
:1059B00000D80A2409AE2800210002F0EBFA030007
:1059C000CAB2080029001D0013003733DBB20928D2
:1059D00002D813003033DBB2013E33708C42EAD977
:1059E00031003800FFF7A2FF0BB0F0BDF8B507009B
:1059F0000D00161E04D10368C9B21B689847F8BD94
:105A00000A2A0CD100290BDA2D21FFF7A5FF32005D
:105A1000040069423800FFF7C1FF2018EFE7D2B257
:105A200029003800FFF7BAFFE9E710B5FFF7DEFFFE
:105A300010BD10B5002A04D10368C9B21B6898478D
:105A400010BDD2B2FFF7AAFFFAE710B5FFF7F1FFDA
:105A500010BD70B50400FFF7ECFF05002000FFF754
:105A600081FF401970BD70B50500FFF7E2FF04002B
:105A70002800FFF777FF201870BD0000F7B51C0065
:105A800008AB1B78210000930700230010001500CD
:105A900004F080F94A4900281ED1012266007608E8
:105AA00028003100474B524204F074F9002809D114
:105AB000012231002800434B524202F07BFB424955
:105AC000002809D0E02228002100404B120602F0F5
:105AD0007BFB002806D03E493800FFF727FF060071
:105AE0003000FEBDE022280021003A4B120602F0F1
:105AF00057FB0028EFD1002200232800210002F0EC
:105B00004FFB002814D02D213800FFF725FF8023FC
:105B10001B060190E418002600202F49009BB34289
:105B200008D000222D4B013602F030FFF6B2F5E727
:105B30000190F0E72A00230002F0BEFB0D000400F4
:105B400002F056FB060004F0A9F90B000200290040
:105B5000200003F08DFD0A2204000D003800310002
:105B6000FFF71CFF019BC618009B002B04D03800D8
:105B70001B49FFF7DBFE3618009B013BDBB20093AD
:105B8000FF2BADD0154B00222000290003F004FBB1
:105B90000D00040002F02CFB0A22010001903800E5
:105BA000FFF7FCFE3618019804F078F902000B00AC
:105BB0002000290003F05CFD04000D00DCE7C04676
:105BC00067BD0000FFFFEF7F6BBD0000FFFFEF41EF
:105BD0006FBD0000FFFFEFC10000E03F0000244068
:105BE000EFB2000007B50499C9B20091FFF746FF74
:105BF0000EBD016070479446F0B505AC25789C1E3B
:105C0000621E9441624606689207376824063A434A
:105C100022430724326000682140AD01002442681D
:105C20002943022B00D05C030A4322434260F0BDAB
:105C300030B5C0250368AD031C6812052A40224315
:105C4000C0240904A40221400A431A6003685A6868
:105C500014435C6030BD0123026811680B4313607C
:105C600003681A68D207FCD4DA69D207F9D47047FE
:105C70000223026811680B4313600268D3699B0713
:105C8000FCD4704703681A7ED20702D41A7E9207AA
:105C9000FCD57047002203685A8370470368187E5A
:105CA0004007C00F70470368187EC0097047802303
:105CB00002685B42117E0B43137670470368588B72
:105CC0008007C00F704702230268518B0B43538338
:105CD00070470368187EC007C00F70470368188DAF
:105CE000C0B2704703681A7ED207FCD589B2012082
:105CF00019857047012203689A757047012203686D
:105D00001A7570470123026811680B43136003681A
:105D10001A68D207FCD4DA69D207F9D47047022393
:105D2000026811680B4313600268D3699B07FCD4B7
:105D300070470368DA699207FCD402211A688A4323
:105D40001A6070470268936A5B0A5B020B439362B6
:105D500003681A7E5207FCD5986AC0B270470000EB
:105D600010B50548490002F08FF880B2002801D034
:105D7000013880B2C0B210BD006CDC0270B50C00FE
:105D80000126110063080268334034401568240777
:105D90005B0723432B4313600468FFF7E1FF207385
:105DA00070BD80230268DB02116851680B435360A9
:105DB00070470000036803491A685A680A405A602D
:105DC0007047C046FFFFFBFF032230B50368114058
:105DD0001C68074D5A6809042A40E4061143640F01
:105DE0005960052C03D10268D3695B07FCD430BD30
:105DF000FFFFFCFF0368283319700268137E5B07FE
:105E0000D80F002B04DA0123508B4007C00F5840F5
:105E1000704703681868C006400F04384342584171
:105E2000C0B270470368187E4007C00F7047036810
:105E3000187EC007C00F70470368588BC006C00F9C
:105E400070470368187E8007C00F70470368588B3F
:105E50000007C00F704703681A68D206520F052A60
:105E600002D11A7E9207FCD528331878C0B2704749
:105E70000368104A934213D00F4A934212D00F4A3C
:105E8000934211D00E4A934210D00E4A93420FD043
:105E900001200D4A4042934201D1063040B2704782
:105EA0000020FBE70120F9E70220F7E70320F5E7F0
:105EB0000420F3E700080042000C004200100042FA
:105EC0000014004200180042001C0042F8B5FFF721
:105ED000CFFF00282CDB1D4BC000181805230479C8
:105EE000C3560320FF221840C0008240C021D24385
:105EF0008140002B1DDB1F2501201D40C026A8402E
:105F0000134D7600A851C0269B089B005B19B60074
:105F10009F593A401143995128603F2323408024E0
:105F2000E4011C430B4B5C805A7852B2002AFBDB25
:105F3000F8BD0F200340083B07489B089B001B1837
:105F4000D86902401143D961E7E7C04674BD00003B
:105F500000E100E0000C004000ED00E0F8B50400B6
:105F60000F0016001D00FFF7B1FF2000FFF773FEC2
:105F70001C21BB000B4071072268090C0B43136006
:105F8000842322689375012F1AD11021012E00D08D
:105F900008390C4B69431868C00001F075FF0722EF
:105FA000216802408B895203DB04DB0C13438B8195
:105FB000226803049089DB0C400B40031843908156
:105FC000F8BDC046B4000020F7B50500019308AB4A
:105FD0000C0016001F78FFF795FE2800FFF776FFEC
:105FE000C021C022890224040C409203BF07360559
:105FF000274316403E430C2707222B683E431E6072
:10600000019B296813401A0080239B0213434B60B5
:106010002A68D3695B07FCD4F7BD3F20704713B5EE
:106020006B460268D9710733546819000122A047F2
:1060300016BD10B50221006900F02AFC10BD10B594
:106040000321006900F03AFC10BD000010B51300F8
:10605000084A0400D279002A03D10123002063609A
:1060600010BD0A000069032100F020FD0028F4D0D3
:10607000F6E7C0463C00002010B5054C0300206840
:10608000421C04D11A68180052699047206010BD64
:1060900088000020074A0300106810B5411C03D097
:1060A00001235B42136010BD0221186900F0F0FC6F
:1060B000F9E7C0468800002010B503784222023379
:1060C00003700249024800F09DFD10BD440000200D
:1060D0003047002010B50178030042780020A12944
:1060E00008D1212A05D1174917481A3A00F08AFD2C
:1060F000012010BD2129FCD1202A13D111491248B9
:10610000193A00F01FFC96220E4BD20019689142FA
:106110000ED1DA7901231A420AD1FA2001F0CAFD20
:106120000020E6E7222A06D19A78064BDA71EAE7E0
:1061300001F0C6FDF4E7232ADBD15A88034B1A602D
:10614000D7E7C0463C000020304700203800002040
:1061500070470000FA220021054B92009A60054A20
:1061600008321A60044A59601A6119767047C046AD
:1061700014470020A4BD000030470020704770B5D0
:106180000F26CB1D02003240D5B22C00000930345E
:10619000092A00DD07341C705A1E994200D170BDD7
:1061A0001300EFE710B50400806903F0F1FFA06A67
:1061B00003F0EEFF200010BD10B50400FFF7F2FF62
:1061C000200001F055FB200010BD000070B5032930
:1061D00008D1324B8000C058002802D00368DB6829
:1061E000984770BD82291FD1C3B22D4D5A01AA18FC
:1061F00091692C4C80010C40C0218905214391619B
:10620000294908334018802150612A685B01D01861
:1062100004794942214301717020995C814308004F
:10622000302101439954DCE70029DAD1C024C1B2FE
:106230001B4E4A01B21893681A4DA4052B40234304
:1062400093601A4B8001C0180B005060306807261D
:1062500008335B01195CB1430E000121314319542D
:1062600091690D402C43946170240F495161195C70
:10627000A1430C0010212143195491680C4CC31800
:106280000C4080214903214391609168890B890367
:106290009160402259790A435A71A2E7344700209D
:1062A000E84B0020FFFFFF8F5C4700201C490020C7
:1062B000FF3F00F0EFF3108303600123436072B6E9
:1062C00070470368002B02D162B6BFF36F8F70472F
:1062D00037B5056904006846002D14D1FFF7EAFFC1
:1062E000019B621D013B02D3D57FEDB2FAE7684600
:1062F0000193FFF7E6FF002D01D100203EBD206A8B
:10630000E369C01AFAE7FFF7D5FF22000025019BD9
:106310003432013B02D31578EDB2FAE768460193B7
:10632000FFF7CFFF002DE8D0206BE36AE9E700001C
:10633000F0B5FF2501264268836811682B405B0198
:10634000CC186419A77AD3183E43A672C6689C6815
:106350000B4FB60436093C4034439C6083682B40A5
:106360005B01D2189468A40BA40394604022836854
:106370002B4008335B01CB1819790A431A71F0BD21
:10638000FF3F00F0F7B5056904000E0017006846EE
:10639000002D43D1FFF78EFF019B601D013B5A1C6E
:1063A0000BD0C27F591E002A05D168460193FFF722
:1063B00088FF2800FEBD0B00F1E768460193FFF758
:1063C00080FFE369AF420AD0226A9A4207D95A1C79
:1063D000E261A269D3181B7873550135F1E7226A8F
:1063E0009A42E6D10023E361013368462361FFF757
:1063F00061FF22000021019B671D013B3532581CC3
:10640000D3D0F97710785E1E002805D020001170D7
:106410000193FFF78DFFECE73300F0E7FFF74AFF4A
:106420002000019B3430013B5A1C06D00278591ED3
:10643000D5B2002AB9D00B00F6E7684601930025D3
:10644000FFF73FFFE36ABD4202D0226B9A421CD89D
:10645000226B9A42ADD100236846E3622361FFF7C5
:1064600029FF270022000021019B3437013B3532F0
:10647000581C9AD0397010785E1E00280DD020006C
:1064800011700193FFF754FFEBE75A1CE262A26A16
:10649000D3181B7873550135D4E73300E8E7F7B517
:1064A00082684368D2B211000400083118684901BB
:1064B0004118C879C00729D501255201CD719B1813
:1064C0009A6861699204920C002923D12262226A9F
:1064D000002A41D0A26A656168465A60FFF7EAFE69
:1064E000342294462200019B671D013BA4443532AF
:1064F000591C2DD06146FD770978581ECEB200296F
:1065000005D0019368461570FFF7DBFEF7BD030069
:106510001670EDE72263226B002A1DD000222700AF
:106520006261A26968465A60FFF7C4FE019B621D62
:106530009446013B34373032591C09D061463D70D6
:10654000C97F581ECEB20029DBD103001670F3E7D5
:1065500068460193FFF7B5FE2000FFF7E9FED5E797
:1065600013B56A4600230C00D01DD371FFF7A4FDBC
:1065700023681818206001F019FC6B46D91D01F042
:10658000E1FB236818186B462060D87916BD00001F
:1065900003290ED180220E4B62311B68FF31585CFB
:1065A000524202435A5468226339FF32FF399954E8
:1065B00070470129FCD18022054B24311B68FF3133
:1065C000585C524202435A5428222339FF32EDE7E5
:1065D000E84B002070B500252F4B012104001A2044
:1065E0001D7001F0ADFA01211A2001F0D9FA2B4BF0
:1065F000012119201D7001F0A3FA0121192001F0D9
:10660000CFFA2023264A0F20D1690B43D361012200
:1066100024490B7813430B70234B1978814319706D
:1066200006211D782943197020490D782A430A70E4
:106630001A7802401A70602219780A431A701C4BAB
:106640001C4A5A805A78D209FCD11B4801F092F8B2
:106650001A4D280001F0BEFB280001F0D1FB7F217C
:106660002B68C1201A7880000A401A700422197819
:106670000A430C211A701A898A4311491A810A584F
:106680001202120A0A5080220A6019787E3A0A43DE
:106690001A700123237070BD51470020504700201D
:1066A00000040040584400413C440041594400412A
:1066B000000C0040064000008D700000E84B0020F8
:1066C00000E100E00078002810D00121084B1B6891
:1066D0001A898A431A810822198B0A431A830422D1
:1066E000198B0A431A830022024B1A607047C04676
:1066F000E84B0020E04B00200A000E498B699B0B01
:106700009B038B610B680221FF33197298798239E0
:1067100001439971197A8907FCD57F20064B024005
:10672000997A8143114380229972997A52420A439D
:106730009A727047E84B00200050004110B50B7969
:106740000C00002B0CD10800FFF7C4FC002801D07E
:10675000012010BD094A93699B0B9B039361F7E7E6
:1067600001F024FB210001F011FB0028F0D1034AC5
:1067700093699B0B9B039361EBE7C046E84B0020BA
:10678000F7B50D001100832A19D1EBB2324C5A0132
:10679000A21891693148AD010840C0218905014323
:1067A00091612F4920686D187021083355615B0194
:1067B0001A5C8A43110040220A431A54F7BD022A88
:1067C00045D1284AAB009858002802D003685B697D
:1067D0009847382001F048F8234B802703600023B6
:1067E0001D4E7F00421D036203614361C361466029
:1067F0008560C760D3772F32C362036304001370D0
:106800003800537003F0BAFC0190A061380003F027
:10681000B5FCEBB25A01A062B21891680F48083378
:106820000840C021890501439160316807265B015A
:10683000585CAD00B0430600032030435854019B20
:1068400020005360FFF774FD064B5C51B6E728004B
:10685000FFF7BCFCB2E7C046E84B0020FFFFFF8F0C
:106860005C47002034470020D0BD000070B5050013
:106870000124064BA200D258002A05D0210028008E
:10688000FFF77EFF0134F4E770BDC0468C000020A6
:10689000084B8A00D05810B5002803D003689B68C5
:1068A000984710BD044BC9B2490159188868800443
:1068B000800CF6E734470020E84B002010B50C00B0
:1068C000FFF7E6FF00280CD0064BE4B219688023DE
:1068D000083464010C1962795B421343637102232B
:1068E000E37110BDE84B002070B5CBB2124A1348DB
:1068F0005C0189018918021951609168104D0833B3
:106900000D40802189022943402591609168890BBF
:106910008903916001685A018A1816793543157107
:1069200095796D06FCD55B01C918CB79DB07FCD5E1
:1069300000198068C0B270BD1C490020E84B0020DF
:10694000FF3F00F070B5140040220B4B0D001B6898
:10695000FF3359790A435A710021FFF7C5FFA0425E
:1069600000D9200000230549A34203D0CA5CEA54A1
:106970000133F9E770BDC046E84B00201C490020F8
:1069800010B50C48C9B24901421893689B049B0C8E
:106990003F2B0BD99468403B9B04A40B9B0CA40396
:1069A0002343936041188868C0B210BD93689B0B65
:1069B0009B03F6E7E84B0020F0B51C002F4B85B099
:1069C0001B6806000D000192002B54D02C4F3B7821
:1069D000D9B2002B02D1192001F0E2F864233B70F8
:1069E000284BAA00D058002808D0036822005B6812
:1069F000019998470400200005B0F0BD290030003F
:106A0000FFF746FF844204D929003000FFF740FF1A
:106A1000040029003000FFF7B3FF0121EBB21A4F49
:106A200003935B010293029A3B6801989B18FF3322
:106A30005A7A0A435A72154BA9012200C91803F069
:106A4000B1FB002CD7D029003000FFF721FF002830
:106A5000D1D14021039B3A6808335B01D3181879E0
:106A6000014319710121D971029BD318FF339A7A1E
:106A70000A439A72BFE701246442BCE7E04B00205E
:106A80005047002034470020E84B00201C490020DC
:106A900013B56B46DC1D22000123FFF78DFF012893
:106AA00001D1207816BD01204042FBE7F0B51C0063
:106AB0003A4B85B01B680E000192002B3FD080231B
:106AC000DB019C423BD8364D2B78D9B2002B02D14A
:106AD0001A2001F065F8642300272B70314BB201B6
:106AE000D3180293002C2CD02F4B1B680393FF2349
:106AF00033401D0000930835039B6D015D19AB7990
:106B0000DB0921D0294B2A49186801F0BDF9294B2E
:106B10001721584301F0B8F9274BEA79920713D4AB
:106B20009A5D002A01D10138F7D201229A55009BC3
:106B30005A011D4B9B189A69920B92039A61012787
:106B40007F42380005B0F0BD00221B4B25009A554E
:106B5000402C00D940252A000199029803F022FB1D
:106B6000009BA9045A01104B890C9B18029A7F19AB
:106B70005A619A69641B920B92030A439A61009BC3
:106B8000039A08335B01D3180222DA715979823AE9
:106B90000A435A71019B5B190193A3E7E04B002064
:106BA000514700205C470020E84B0020B400002043
:106BB00040420F00701101005347002070B50C00D7
:106BC0001D000D4BA601F618110030002A0003F03D
:106BD000E9FAE4B2094A640114196661A369084933
:106BE00028000B40A361A169AB04890B9B0C8903AE
:106BF0001943A16170BDC0465C470020E84B0020EE
:106C0000FF3F00F0F7B5104B0F001B781400019008
:106C1000002B0CD10D4B16001D78002D09D00C4E09
:106C20000C48358828182D1903F0BCFA358020004F
:106C3000FEBD002EFBD033007A1900210198FFF72A
:106C4000BDFF2D18361AF4E7DC4A0020DD4B00208A
:106C5000DE4B0020DD4A0020F8B500200D001400B6
:106C600000AF012A27D9D31D6A46DB08DB00D31AFF
:106C70009D46080003F08CFE6E460323022200218D
:106C80000130400030707370A2420DD22878002885
:106C90000AD0531CDBB20135B0549C4203D00232FF
:106CA000F154D2B2F0E7220031000448FFF7AAFF06
:106CB000431E9841C0B2BD46F8BDC04630470020D3
:106CC000F0B50025012785B0184B0E0069461F70EE
:106CD00004000095FFF744FC154B01A90B806A3BAB
:106CE000FF3BCB716E3B0B72009B320009334B8034
:106CF0000E4B8D714F7108711D70092E0FD00D4E06
:106D0000092237700C4F200000953D80FFF77AFF75
:106D100069462000FFF724FC3A88084935702000B6
:106D2000FFF770FF012005B0F0BDC046DC4A00202F
:106D300009020000DD4B0020DE4B0020DD4A002070
:106D4000F0B5CF7805000E0093B0022F09D1C988A5
:106D50002B48FFF7B5FF441EA041C4B2200013B07A
:106D6000F0BD01F023F8310001F000F8002803D055
:106D7000C417241AE40FF1E7012F0BD1F28821493F
:106D8000112A11D8D2B2002A0ED02800FFF73AFFFC
:106D90000124E3E70400032FE0D1B378002B05D1F1
:106DA000F2881949032AEDD90A78EEE7022B06D1B9
:106DB000B27916492800FFF74FFF0400CEE7012BF8
:106DC00002D1B2791249F5E7032BC7D1114B01A9C2
:106DD0001868FFF7D4F9104B03A91868FFF7CFF92B
:106DE0000E4B05A91868FFF7CAF90D4B07A91868DB
:106DF000FFF7C5F96B460533DC77B27901A9D9E70E
:106E00003047002001BE0000F4BD0000E8BD0000D6
:106E1000F8BD00000CA0800040A0800044A08000CD
:106E200048A0800037B5050048780C000B2810D822
:106E300001F016F8061B0F310F484D7551546E7155
:106E4000097801AA002906D1022311802800FFF742
:106E5000B5FE01203EBD00231380324B1B78012B71
:106E600000D1137002230021F0E78A780023012A61
:106E700009D16A4693802C4B1B78012B00D11371EA
:106E8000022301AAEFE7274A1370284A93699B0B54
:106E90009B039361DDE78C78012C07D1224B01AA7B
:106EA0001C70234B1B7813702300DCE70020844206
:106EB000D0D11C4B01301D4A187093699B0B9B036A
:106EC0009361C7E728008978FFF716FCC1E728001F
:106ED000FFF736FFBEE70123164AC4E70B78002010
:106EE000DB06B7D12800FFF7C1FC2A200221A278D7
:106EF000104BFF301A600D4A13681C5C21434A2472
:106F00001954FF34195D2938FF3801431955D4E766
:106F10000123094AA7E78A78074B1A60B5E70020E2
:106F200098E7C046524700205A470020E84B00200F
:106F300066BD0000E04B0020E44B00204B4BF7B552
:106F40001C780700002C00D083E0494E33689B8BEF
:106F50001B070ED521002000FFF738F932681023F7
:106F60001100FF31887A03438B72424B1C60082367
:106F7000938333689A8B52071FD504229A833E4A23
:106F80001378002B0AD01378013BDBB2137013780F
:106F9000002B03D101211A2000F002FE374A13789A
:106FA000002B0AD01378013BDBB213701378002B4F
:106FB00003D10121192000F0F3FD3368FF331A7A61
:106FC000D2061ED510221A72597930320A435A71EC
:106FD00060232B4938000A781A423BD1FFF722FF81
:106FE0003368FF33002838D08022997952420A430F
:106FF0009A711A7A520604D540221A72597A0A43B3
:107000005A72336800241D8C01239D43EDB2019315
:10701000E1B2002D1DD02B002341019A134215D05F
:107020002300326808335B01D318DA79D20702D41F
:10703000DB799B0707D5134BA200D058002810D04E
:1070400003681B689847019BA3409D430134092CAA
:10705000DED1F7BDFFF772FBC2E720210A4A91712A
:10706000C7E73800FFF794FAEDE7C046DD4B002094
:10707000E84B0020E04B0020514700205047002003
:107080001C49002034470020FF50004110B5024841
:10709000FFF754FF10BDC04630470020014B024AA5
:1070A0001A607047E84B00200050004101207047F3
:1070B00010B50368014A1B6A984710BD130400000D
:1070C0000300FC33D96F9A6F914203D0DB6FC01875
:1070D000007D704701204042FBE710B504000069C5
:1070E000FEF7B9FD22000023FC329367D3679E228E
:1070F0009200A4186366A36610BDF0231B0119401B
:10710000802306209B0099420AD00133FF330130CF
:10711000994205D0802300205B00994200D10530C0
:1071200070470F2001400020012903D00239481E7A
:107130008141481C70470000B923F0B5182785B07D
:1071400002919B000400C05C3B0008214343324E87
:107150001500F318595600F04FFD304B0821E05C44
:107160003B004343F318595600F046FD2C4BE25CBC
:107170000393022A09D11133E05CFF2805D00821CE
:107180004743F719795600F037FDBA27BF00E05D95
:10719000FF2819D0012100F0D3FC1822E35D21491A
:1071A0005A43B356B618DB015818BB21890060500A
:1071B0001D4901225B18BC218900635071688A4017
:1071C000BD21890062501A600122029B11002069D2
:1071D000FEF7C4FE29002000FFF78FFF29000600FC
:1071E0002000FFF79EFFF0221540303D6A425541D6
:1071F00003003100206901220095FEF7FCFC0B4BD7
:107200002069E25C039BE15CFEF712FD2069FEF75A
:107210002FFD05B0F0BDC04608B90000E502000032
:10722000E70200001844004114440041E602000057
:10723000AF2210B504000021520002F0BCFF230071
:107240000022FC3320005A669A6610BDF7B51D0077
:1072500008AB1B780400009309AB1B781600019360
:1072600000234360FA239B008360104B0F00083318
:1072700003601430FFF7DCFF20007D30FF30FFF7A4
:10728000D7FFB9239B002761E654094B009AE554C8
:10729000084B2000E254019A074BE254BA22E93B22
:1072A000FF3B9200A3541032A354FEBD14BE000055
:1072B000E5020000E6020000E70200000300FC33E4
:1072C000586E9B6EC01A01D55F30FF30704710B505
:1072D000040020007D30FF30FFF7F0FF0028F8D1D8
:1072E0002069FEF7CFFC10BD10B51430FFF7E6FFA4
:1072F00010BD0300FC33596E9A6E914205DB5A6E45
:10730000986E801A5E30FF307047986E5B6EC01AC0
:107310000138F9E710B57D30FF30FFF7EAFF10BD07
:1073200070B504000069FEF7C9FC002805D020698B
:10733000FEF7D4FC2069FEF7C6FC2069FEF7AEFC20
:10734000002824D025002069FEF7C8FCAF21FC35B9
:107350000600A86F4900013000F01CFEEB6F994257
:1073600003D0AB6FE3181E75A967BA239B00E35CDB
:10737000FF2B0CD020001430FFF7BBFF092806DCE0
:10738000BB23BD229B009200E358A2581A602069DB
:10739000FEF79FFC00281DD020007D30FF30FFF756
:1073A0008DFF002825D09E239B00E618B26E736ED9
:1073B0009A421BD0BE22AF21B36EB06EE3185200CA
:1073C000013049009D5C00F0E5FDB1662069E9B23D
:1073D000FEF788FC2069FEF766FC002805D02069CE
:1073E000FEF765FC2069FEF755FC70BD01256D4276
:1073F000ECE72069FEF782FCECE70000F7B504003B
:1074000000690E00FEF765FC002847D1AF277F001A
:107410009E239B00E518686EAB6E39000130019326
:1074200000F0B8FD019B994224D1EFF31083DB07F4
:107430000ED4204B5B68DB05DA0D002BE8D0103A48
:1074400053B212060DD49B081B4AC0339B009B58B5
:107450002069FEF73EFC0028DAD02000FFF760FF2D
:10746000D6E70F221340083B144A9B089B009B1849
:107470001B68EDE7AF21686E4900013000F08AFD1E
:10748000AB6E994205D0BE226B6E5200E3189E543B
:1074900069662069FEF72EFC0120FEBD20007D30CC
:1074A000FF30FFF70BFF0028B0D131002069FEF755
:1074B00019FCF1E700ED00E000E100E01CED00E068
:1074C00070B50500FC35EA6FAB6F04009A421DD021
:1074D000AF21EB6F4900C318E86F1E7D013000F04B
:1074E00059FDE967BA239B00E35CFF2B0CD0200019
:1074F0001430FFF7FEFE0A2806DDBC23BD229B00E8
:107500009200E358A2581A60300070BD01267642FE
:10751000E8E70000F7B50092182216264243544BC4
:1075200007009B189E570191731C52D0514B524C2F
:107530001D68002D2BD129004422504802F03BFE4B
:10754000290044224E4802F036FE10224D4B4E498F
:107550001D604E4BCA67BFF34F8FBFF36F8FC021C3
:10756000C12049005A5080001958FF35A9431950CD
:107570001A60474B474A5A800223227813432370EC
:107580006378DB09012BFBD001223A4B1A600123FF
:107590001D00B54062692A436261019A002A18D031
:1075A000102E1FD1E2781343E370009B042B0BD8FD
:1075B00018000723A2789A4300F052FC030C0E1027
:1075C000120005231343A3702D4B019A1A64ADB228
:1075D000E560F7BD0423F5E70323F3E70223F1E7B2
:1075E0000123EFE738000027002100F005FB254BC1
:1075F00022499C461B68BA00BB421DD1604601333C
:1076000003601F4B8D5001999950072E19DD3200F0
:107610000123083A92000720904017499B005B180D
:1076200099698143996100990429D0D8080000F034
:1076300017FC0B1215181B008858A842E1D001371F
:10764000D9E70023B200E6E70521986991400A00D6
:1076500002439A61BBE704219869F7E7032198691F
:10766000F4E702219869F1E701219869EEE7C04645
:1076700008B90000744D002000180040304D002073
:10768000EC4C0020784D002004E100E000E100E037
:10769000000C00400540000070B50024094D0A4B65
:1076A0001B68A34200D870BD084E2A6833691A428D
:1076B00005D0074BA200D35898472B68336101349B
:1076C0000435ECE7304D0020784D002000180040D4
:1076D000EC4C0020054B10B51B6C002B00D09847DC
:1076E0000123034AD1780B43D37010BDEC4C00202A
:1076F00000180040000208437047FEE7034B10B536
:107700001B68002B00D0984710BDC0467C4D002060
:107710000F4A1048110010B50F4B824202D093421D
:1077200009D11300824209D100F0A6F800F07AF8DE
:10773000FEE710CB10C18142FBD3F3E7074A8B422F
:10774000F2D00021064B9A42EED202C2FBE7C046BD
:107750000000002060010020A0BF000060010020A8
:10776000F04D002010B5FCF717FD002801D100F006
:107770004DF810BD014B18607047C0467C4D00208D
:10778000F7B51348012284461249134C8E6863688A
:1077900005689B0E1340019288686268019F920EF3
:1077A0003A4067463F6893420ED1BD420CD18642B3
:1077B0000AD35B19FA254868AD00861B07486B435E
:1077C0007043000DC018FEBD3D0013000600E3E746
:1077D000804D002010E000E000ED00E05555000075
:1077E00070B5041E11D0FFF7CBFFFA260500B600D6
:1077F00000F016F8FFF7C4FF401BB042F8D3FA239D
:10780000013C9B00ED18002CF4D170BD10B5034A6B
:1078100013680133136000F05BFA10BD804D002047
:107820007047704710B500F0D7F802F079FCFFF709
:10783000F8FF0120FFF7D4FF094C2000FEF7CAFE35
:107840002000FEF73FFFFBF773FAFBF7C7FAFFF7DD
:10785000E7FF044B002BF8D000E000BFF5E7C0467F
:10786000304700200000000010B502F087FC10BD7A
:1078700010B502F08DFC10BD1E2270B54648474978
:10788000436893431C3A1343436008238C692343A2
:107890008B61434C434B9C829C8A14439C82DC68E2
:1078A0001442FCD00124404A14701578254203D0BC
:1078B00055786DB2002DF8DB01249460547864B2E1
:1078C000002CFBDB394C5460547864B2002CFBDB99
:1078D0008224E4015480547864B2002CFBDB02243F
:1078E0009C840E34DD682542FCD0314CDC621024CF
:1078F000DD682542FCD09D8C2E4C2C439C841024AA
:10790000DD682542FCD002249D8C80262C439C847B
:107910004024DD683542FCD0DD682542F9D01024D2
:10792000DD682542FCD000249460547864B2002CB9
:10793000FBDB214C5460547864B2002CFBDB1C6AE6
:107940001E4D2C4080251C621C6AAC431C62032324
:1079500093601B4B536053785BB2002BFBDB00231F
:10796000FF240B72174A4B728B72CB72164B1A6044
:10797000164B174A1B6811689A065B01C90E234013
:10798000520F12020B431343124A1385802342689D
:107990001343436070BDC0460040004100040040F6
:1079A0000C06000000080040000C0040010501002A
:1079B000B905FF7D040A000000070300FFFCFFFF7C
:1079C00003060100006CDC02B4000020246080008B
:1079D0002060800000400042FA212E4B10B518684C
:1079E000890000F051FA802301385B0498424FD29D
:1079F00029492A4A4860C020136A00061B021B0A54
:107A00000343136200238B6007330B608021136AEA
:107A100009061B021B0A0B431362FC22204B196A46
:107A20000A431A62FF22196A12020A431A62A0224A
:107A3000196AD2020A431A621A4B1C005A7852B2CF
:107A4000002AFBDB184A5A80184B1A00597EC909D4
:107A50000129FBD0C821890099800521D970537E66
:107A6000DB09012BFBD0C02300205B011361907068
:107A700000F022F863785BB2002BFBDB0C4B0D4A65
:107A80006380D379DB09012BFBD04123537010BDF8
:107A9000FEE7C046B400002010E000E000ED00E08A
:107AA00000040040000C00401E4000000040004266
:107AB00021400000004800421F4900B50B004A7EEB
:107AC000D209012AFBD001380A282FD800F0C8F9C2
:107AD0001B2E2E2E2E2E062E2E2411001A6917492B
